{"abi":[{"type":"function","name":"counterList","inputs":[{"name":"","type":"uint256","internalType":"uint256"}],"outputs":[{"name":"","type":"address","internalType":"address"}],"stateMutability":"view"},{"type":"function","name":"counters","inputs":[{"name":"","type":"address","internalType":"address"}],"outputs":[{"name":"owner","type":"address","internalType":"address"},{"name":"name","type":"string","internalType":"string"},{"name":"description","type":"string","internalType":"string"},{"name":"value","type":"uint256","internalType":"uint256"},{"name":"isActive","type":"bool","internalType":"bool"},{"name":"createdAt","type":"uint256","internalType":"uint256"}],"stateMutability":"view"},{"type":"function","name":"getValue","inputs":[{"name":"owner","type":"address","internalType":"address"}],"outputs":[{"name":"","type":"uint256","internalType":"uint256"}],"stateMutability":"view"},{"type":"function","name":"increment","inputs":[],"outputs":[],"stateMutability":"nonpayable"},{"type":"function","name":"isCounter","inputs":[{"name":"","type":"address","internalType":"address"}],"outputs":[{"name":"","type":"bool","internalType":"bool"}],"stateMutability":"view"},{"type":"function","name":"registerCounter","inputs":[{"name":"_name","type":"string","internalType":"string"},{"name":"_description","type":"string","internalType":"string"},{"name":"_initialValue","type":"uint256","internalType":"uint256"}],"outputs":[],"stateMutability":"nonpayable"},{"type":"function","name":"setValue","inputs":[{"name":"newValue","type":"uint256","internalType":"uint256"}],"outputs":[],"stateMutability":"nonpayable"},{"type":"function","name":"updateCounter","inputs":[{"name":"_name","type":"string","internalType":"string"},{"name":"_description","type":"string","internalType":"string"}],"outputs":[],"stateMutability":"nonpayable"},{"type":"event","name":"CounterRegistered","inputs":[{"name":"owner","type":"address","indexed":true,"internalType":"address"},{"name":"name","type":"string","indexed":false,"internalType":"string"}],"anonymous":false},{"type":"event","name":"CounterUpdated","inputs":[{"name":"owner","type":"address","indexed":true,"internalType":"address"}],"anonymous":false}],"bytecode":{"object":"0x6080604052348015600e575f5ffd5b506112918061001c5f395ff3fe608060405234801561000f575f5ffd5b5060043610610086575f3560e01c80637f026586116100595780637f02658614610136578063be65ab8c14610152578063bf0174c414610187578063d09de08a146101a357610086565b80632c26b2be1461008a5780633ccc0522146100ba57806355241077146100ea5780635ce7c8bb14610106575b5f5ffd5b6100a4600480360381019061009f9190610989565b6101ad565b6040516100b191906109f3565b60405180910390f35b6100d460048036038101906100cf9190610a36565b6101e8565b6040516100e19190610a70565b60405180910390f35b61010460048036038101906100ff9190610989565b610230565b005b610120600480360381019061011b9190610a36565b610300565b60405161012d9190610aa3565b60405180910390f35b610150600480360381019061014b9190610bf8565b61031d565b005b61016c60048036038101906101679190610a36565b610451565b60405161017e96959493929190610cce565b60405180910390f35b6101a1600480360381019061019c9190610d3b565b6105bf565b005b6101ab610866565b005b600281815481106101bc575f80fd5b905f5260205f20015f915054906101000a900473ffffffffffffffffffffffffffffffffffffffff1681565b5f5f5f8373ffffffffffffffffffffffffffffffffffffffff1673ffffffffffffffffffffffffffffffffffffffff1681526020019081526020015f20600301549050919050565b60015f3373ffffffffffffffffffffffffffffffffffffffff1673ffffffffffffffffffffffffffffffffffffffff1681526020019081526020015f205f9054906101000a900460ff166102b9576040517f08c379a00000000000000000000000000000000000000000000000000000000081526004016102b090610e0d565b60405180910390fd5b805f5f3373ffffffffffffffffffffffffffffffffffffffff1673ffffffffffffffffffffffffffffffffffffffff1681526020019081526020015f206003018190555050565b6001602052805f5260405f205f915054906101000a900460ff1681565b60015f3373ffffffffffffffffffffffffffffffffffffffff1673ffffffffffffffffffffffffffffffffffffffff1681526020019081526020015f205f9054906101000a900460ff166103a6576040517f08c379a000000000000000000000000000000000000000000000000000000000815260040161039d90610e0d565b60405180910390fd5b5f5f5f3373ffffffffffffffffffffffffffffffffffffffff1673ffffffffffffffffffffffffffffffffffffffff1681526020019081526020015f209050828160010190816103f69190611028565b50818160020190816104089190611028565b503373ffffffffffffffffffffffffffffffffffffffff167f98f4dce0bb6424b4d5260d44ad5de1a96f6713084a329647ee9ba7670546d4b060405160405180910390a2505050565b5f602052805f5260405f205f91509050805f015f9054906101000a900473ffffffffffffffffffffffffffffffffffffffff169080600101805461049490610e58565b80601f01602080910402602001604051908101604052809291908181526020018280546104c090610e58565b801561050b5780601f106104e25761010080835404028352916020019161050b565b820191905f5260205f20905b8154815290600101906020018083116104ee57829003601f168201915b50505050509080600201805461052090610e58565b80601f016020809104026020016040519081016040528092919081815260200182805461054c90610e58565b80156105975780601f1061056e57610100808354040283529160200191610597565b820191905f5260205f20905b81548152906001019060200180831161057a57829003601f168201915b505050505090806003015490806004015f9054906101000a900460ff16908060050154905086565b60015f3373ffffffffffffffffffffffffffffffffffffffff1673ffffffffffffffffffffffffffffffffffffffff1681526020019081526020015f205f9054906101000a900460ff1615610649576040517f08c379a000000000000000000000000000000000000000000000000000000000815260040161064090611141565b60405180910390fd5b5f83511161068c576040517f08c379a0000000000000000000000000000000000000000000000000000000008152600401610683906111a9565b60405180910390fd5b5f5f5f3373ffffffffffffffffffffffffffffffffffffffff1673ffffffffffffffffffffffffffffffffffffffff1681526020019081526020015f20905033815f015f6101000a81548173ffffffffffffffffffffffffffffffffffffffff021916908373ffffffffffffffffffffffffffffffffffffffff1602179055508381600101908161071d9190611028565b508281600201908161072f9190611028565b508181600301819055506001816004015f6101000a81548160ff0219169083151502179055504281600501819055506001805f3373ffffffffffffffffffffffffffffffffffffffff1673ffffffffffffffffffffffffffffffffffffffff1681526020019081526020015f205f6101000a81548160ff021916908315150217905550600233908060018154018082558091505060019003905f5260205f20015f9091909190916101000a81548173ffffffffffffffffffffffffffffffffffffffff021916908373ffffffffffffffffffffffffffffffffffffffff1602179055503373ffffffffffffffffffffffffffffffffffffffff167fa6ce4825e7169bf92dcbc5184ee2c3ecbe4b3568e048bbfc7bd60475fb7e4aed8560405161085891906111c7565b60405180910390a250505050565b60015f3373ffffffffffffffffffffffffffffffffffffffff1673ffffffffffffffffffffffffffffffffffffffff1681526020019081526020015f205f9054906101000a900460ff166108ef576040517f08c379a00000000000000000000000000000000000000000000000000000000081526004016108e690610e0d565b60405180910390fd5b5f5f3373ffffffffffffffffffffffffffffffffffffffff1673ffffffffffffffffffffffffffffffffffffffff1681526020019081526020015f206003015f81548092919061093e90611214565b9190505550565b5f604051905090565b5f5ffd5b5f5ffd5b5f819050919050565b61096881610956565b8114610972575f5ffd5b50565b5f813590506109838161095f565b92915050565b5f6020828403121561099e5761099d61094e565b5b5f6109ab84828501610975565b91505092915050565b5f73ffffffffffffffffffffffffffffffffffffffff82169050919050565b5f6109dd826109b4565b9050919050565b6109ed816109d3565b82525050565b5f602082019050610a065f8301846109e4565b92915050565b610a15816109d3565b8114610a1f575f5ffd5b50565b5f81359050610a3081610a0c565b92915050565b5f60208284031215610a4b57610a4a61094e565b5b5f610a5884828501610a22565b91505092915050565b610a6a81610956565b82525050565b5f602082019050610a835f830184610a61565b92915050565b5f8115159050919050565b610a9d81610a89565b82525050565b5f602082019050610ab65f830184610a94565b92915050565b5f5ffd5b5f5ffd5b5f601f19601f8301169050919050565b7f4e487b71000000000000000000000000000000000000000000000000000000005f52604160045260245ffd5b610b0a82610ac4565b810181811067ffffffffffffffff82111715610b2957610b28610ad4565b5b80604052505050565b5f610b3b610945565b9050610b478282610b01565b919050565b5f67ffffffffffffffff821115610b6657610b65610ad4565b5b610b6f82610ac4565b9050602081019050919050565b828183375f83830152505050565b5f610b9c610b9784610b4c565b610b32565b905082815260208101848484011115610bb857610bb7610ac0565b5b610bc3848285610b7c565b509392505050565b5f82601f830112610bdf57610bde610abc565b5b8135610bef848260208601610b8a565b91505092915050565b5f5f60408385031215610c0e57610c0d61094e565b5b5f83013567ffffffffffffffff811115610c2b57610c2a610952565b5b610c3785828601610bcb565b925050602083013567ffffffffffffffff811115610c5857610c57610952565b5b610c6485828601610bcb565b9150509250929050565b5f81519050919050565b5f82825260208201905092915050565b8281835e5f83830152505050565b5f610ca082610c6e565b610caa8185610c78565b9350610cba818560208601610c88565b610cc381610ac4565b840191505092915050565b5f60c082019050610ce15f8301896109e4565b8181036020830152610cf38188610c96565b90508181036040830152610d078187610c96565b9050610d166060830186610a61565b610d236080830185610a94565b610d3060a0830184610a61565b979650505050505050565b5f5f5f60608486031215610d5257610d5161094e565b5b5f84013567ffffffffffffffff811115610d6f57610d6e610952565b5b610d7b86828701610bcb565b935050602084013567ffffffffffffffff811115610d9c57610d9b610952565b5b610da886828701610bcb565b9250506040610db986828701610975565b9150509250925092565b7f4e6f7420726567697374657265640000000000000000000000000000000000005f82015250565b5f610df7600e83610c78565b9150610e0282610dc3565b602082019050919050565b5f6020820190508181035f830152610e2481610deb565b9050919050565b7f4e487b71000000000000000000000000000000000000000000000000000000005f52602260045260245ffd5b5f6002820490506001821680610e6f57607f821691505b602082108103610e8257610e81610e2b565b5b50919050565b5f819050815f5260205f209050919050565b5f6020601f8301049050919050565b5f82821b905092915050565b5f60088302610ee47fffffffffffffffffffffffffffffffffffffffffffffffffffffffffffffffff82610ea9565b610eee8683610ea9565b95508019841693508086168417925050509392505050565b5f819050919050565b5f610f29610f24610f1f84610956565b610f06565b610956565b9050919050565b5f819050919050565b610f4283610f0f565b610f56610f4e82610f30565b848454610eb5565b825550505050565b5f5f905090565b610f6d610f5e565b610f78818484610f39565b505050565b5b81811015610f9b57610f905f82610f65565b600181019050610f7e565b5050565b601f821115610fe057610fb181610e88565b610fba84610e9a565b81016020851015610fc9578190505b610fdd610fd585610e9a565b830182610f7d565b50505b505050565b5f82821c905092915050565b5f6110005f1984600802610fe5565b1980831691505092915050565b5f6110188383610ff1565b9150826002028217905092915050565b61103182610c6e565b67ffffffffffffffff81111561104a57611049610ad4565b5b6110548254610e58565b61105f828285610f9f565b5f60209050601f831160018114611090575f841561107e578287015190505b611088858261100d565b8655506110ef565b601f19841661109e86610e88565b5f5b828110156110c5578489015182556001820191506020850194506020810190506110a0565b868310156110e257848901516110de601f891682610ff1565b8355505b6001600288020188555050505b505050505050565b7f416c7265616479207265676973746572656400000000000000000000000000005f82015250565b5f61112b601283610c78565b9150611136826110f7565b602082019050919050565b5f6020820190508181035f8301526111588161111f565b9050919050565b7f4e616d65207265717569726564000000000000000000000000000000000000005f82015250565b5f611193600d83610c78565b915061119e8261115f565b602082019050919050565b5f6020820190508181035f8301526111c081611187565b9050919050565b5f6020820190508181035f8301526111df8184610c96565b905092915050565b7f4e487b71000000000000000000000000000000000000000000000000000000005f52601160045260245ffd5b5f61121e82610956565b91507fffffffffffffffffffffffffffffffffffffffffffffffffffffffffffffffff82036112505761124f6111e7565b5b60018201905091905056fea2646970667358221220e4227296690a82c3de72170b84b72ec6ed74bbc932674b192edaee26b85c3aa464736f6c634300081e0033","linkReferences":{}},"methodIdentifiers":{"counterList(uint256)":"2c26b2be","counters(address)":"be65ab8c","getValue(address)":"3ccc0522","increment()":"d09de08a","isCounter(address)":"5ce7c8bb","registerCounter(string,string,uint256)":"bf0174c4","setValue(uint256)":"55241077","updateCounter(string,string)":"7f026586"},"id":27}