{"abi":[{"type":"function","name":"creatorList","inputs":[{"name":"","type":"uint256","internalType":"uint256"}],"outputs":[{"name":"","type":"address","internalType":"address"}],"stateMutability":"view"},{"type":"function","name":"creators","inputs":[{"name":"","type":"address","internalType":"address"}],"outputs":[{"name":"creator","type":"address","internalType":"address"},{"name":"name","type":"string","internalType":"string"},{"name":"bio","type":"string","internalType":"string"},{"name":"avatar","type":"string","internalType":"string"},{"name":"isActive","type":"bool","internalType":"bool"},{"name":"totalStaked","type":"uint256","internalType":"uint256"},{"name":"fanCount","type":"uint256","internalType":"uint256"},{"name":"createdAt","type":"uint256","internalType":"uint256"}],"stateMutability":"view"},{"type":"function","name":"isCreator","inputs":[{"name":"","type":"address","internalType":"address"}],"outputs":[{"name":"","type":"bool","internalType":"bool"}],"stateMutability":"view"},{"type":"function","name":"registerCreator","inputs":[{"name":"_name","type":"string","internalType":"string"},{"name":"_bio","type":"string","internalType":"string"},{"name":"_avatar","type":"string","internalType":"string"}],"outputs":[],"stateMutability":"nonpayable"},{"type":"function","name":"updateProfile","inputs":[{"name":"_name","type":"string","internalType":"string"},{"name":"_bio","type":"string","internalType":"string"},{"name":"_avatar","type":"string","internalType":"string"}],"outputs":[],"stateMutability":"nonpayable"},{"type":"event","name":"CreatorRegistered","inputs":[{"name":"creator","type":"address","indexed":true,"internalType":"address"},{"name":"name","type":"string","indexed":false,"internalType":"string"}],"anonymous":false},{"type":"event","name":"CreatorUpdated","inputs":[{"name":"creator","type":"address","indexed":true,"internalType":"address"}],"anonymous":false}],"bytecode":{"object":"0x6080604052348015600e575f5ffd5b506110008061001c5f395ff3fe608060405234801561000f575f5ffd5b5060043610610055575f3560e01c80631105a5eb146100595780631269736214610075578063933166e1146100a5578063a1c864e9146100dc578063efd46065146100f8575b5f5ffd5b610073600480360381019061006e91906108c4565b610128565b005b61008f600480360381019061008a919061099b565b61026f565b60405161009c9190610a05565b60405180910390f35b6100bf60048036038101906100ba9190610a48565b6102aa565b6040516100d3989796959493929190610afc565b60405180910390f35b6100f660048036038101906100f191906108c4565b6104aa565b005b610112600480360381019061010d9190610a48565b61075a565b60405161011f9190610b8d565b60405180910390f35b60015f3373ffffffffffffffffffffffffffffffffffffffff1673ffffffffffffffffffffffffffffffffffffffff1681526020019081526020015f205f9054906101000a900460ff166101b1576040517f08c379a00000000000000000000000000000000000000000000000000000000081526004016101a890610bf0565b60405180910390fd5b5f5f5f3373ffffffffffffffffffffffffffffffffffffffff1673ffffffffffffffffffffffffffffffffffffffff1681526020019081526020015f209050838160010190816102019190610e0b565b50828160020190816102139190610e0b565b50818160030190816102259190610e0b565b503373ffffffffffffffffffffffffffffffffffffffff167f40ce16136d64bc46500073cc9655e1b0b622a8a3023a5b4a35ea71b2dc4a24b360405160405180910390a250505050565b6002818154811061027e575f80fd5b905f5260205f20015f915054906101000a900473ffffffffffffffffffffffffffffffffffffffff1681565b5f602052805f5260405f205f91509050805f015f9054906101000a900473ffffffffffffffffffffffffffffffffffffffff16908060010180546102ed90610c3b565b80601f016020809104026020016040519081016040528092919081815260200182805461031990610c3b565b80156103645780601f1061033b57610100808354040283529160200191610364565b820191905f5260205f20905b81548152906001019060200180831161034757829003601f168201915b50505050509080600201805461037990610c3b565b80601f01602080910402602001604051908101604052809291908181526020018280546103a590610c3b565b80156103f05780601f106103c7576101008083540402835291602001916103f0565b820191905f5260205f20905b8154815290600101906020018083116103d357829003601f168201915b50505050509080600301805461040590610c3b565b80601f016020809104026020016040519081016040528092919081815260200182805461043190610c3b565b801561047c5780601f106104535761010080835404028352916020019161047c565b820191905f5260205f20905b81548152906001019060200180831161045f57829003601f168201915b505050505090806004015f9054906101000a900460ff16908060050154908060060154908060070154905088565b60015f3373ffffffffffffffffffffffffffffffffffffffff1673ffffffffffffffffffffffffffffffffffffffff1681526020019081526020015f205f9054906101000a900460ff1615610534576040517f08c379a000000000000000000000000000000000000000000000000000000000815260040161052b90610f24565b60405180910390fd5b5f835111610577576040517f08c379a000000000000000000000000000000000000000000000000000000000815260040161056e90610f8c565b60405180910390fd5b5f5f5f3373ffffffffffffffffffffffffffffffffffffffff1673ffffffffffffffffffffffffffffffffffffffff1681526020019081526020015f20905033815f015f6101000a81548173ffffffffffffffffffffffffffffffffffffffff021916908373ffffffffffffffffffffffffffffffffffffffff160217905550838160010190816106089190610e0b565b508281600201908161061a9190610e0b565b508181600301908161062c9190610e0b565b506001816004015f6101000a81548160ff0219169083151502179055504281600701819055506001805f3373ffffffffffffffffffffffffffffffffffffffff1673ffffffffffffffffffffffffffffffffffffffff1681526020019081526020015f205f6101000a81548160ff021916908315150217905550600233908060018154018082558091505060019003905f5260205f20015f9091909190916101000a81548173ffffffffffffffffffffffffffffffffffffffff021916908373ffffffffffffffffffffffffffffffffffffffff1602179055503373ffffffffffffffffffffffffffffffffffffffff167f436a110767b6510e398091d7e698dbc3a574692ec743e8e40f4fb1ccefc00fc88560405161074c9190610faa565b60405180910390a250505050565b6001602052805f5260405f205f915054906101000a900460ff1681565b5f604051905090565b5f5ffd5b5f5ffd5b5f5ffd5b5f5ffd5b5f601f19601f8301169050919050565b7f4e487b71000000000000000000000000000000000000000000000000000000005f52604160045260245ffd5b6107d682610790565b810181811067ffffffffffffffff821117156107f5576107f46107a0565b5b80604052505050565b5f610807610777565b905061081382826107cd565b919050565b5f67ffffffffffffffff821115610832576108316107a0565b5b61083b82610790565b9050602081019050919050565b828183375f83830152505050565b5f61086861086384610818565b6107fe565b9050828152602081018484840111156108845761088361078c565b5b61088f848285610848565b509392505050565b5f82601f8301126108ab576108aa610788565b5b81356108bb848260208601610856565b91505092915050565b5f5f5f606084860312156108db576108da610780565b5b5f84013567ffffffffffffffff8111156108f8576108f7610784565b5b61090486828701610897565b935050602084013567ffffffffffffffff81111561092557610924610784565b5b61093186828701610897565b925050604084013567ffffffffffffffff81111561095257610951610784565b5b61095e86828701610897565b9150509250925092565b5f819050919050565b61097a81610968565b8114610984575f5ffd5b50565b5f8135905061099581610971565b92915050565b5f602082840312156109b0576109af610780565b5b5f6109bd84828501610987565b91505092915050565b5f73ffffffffffffffffffffffffffffffffffffffff82169050919050565b5f6109ef826109c6565b9050919050565b6109ff816109e5565b82525050565b5f602082019050610a185f8301846109f6565b92915050565b610a27816109e5565b8114610a31575f5ffd5b50565b5f81359050610a4281610a1e565b92915050565b5f60208284031215610a5d57610a5c610780565b5b5f610a6a84828501610a34565b91505092915050565b5f81519050919050565b5f82825260208201905092915050565b8281835e5f83830152505050565b5f610aa582610a73565b610aaf8185610a7d565b9350610abf818560208601610a8d565b610ac881610790565b840191505092915050565b5f8115159050919050565b610ae781610ad3565b82525050565b610af681610968565b82525050565b5f61010082019050610b105f83018b6109f6565b8181036020830152610b22818a610a9b565b90508181036040830152610b368189610a9b565b90508181036060830152610b4a8188610a9b565b9050610b596080830187610ade565b610b6660a0830186610aed565b610b7360c0830185610aed565b610b8060e0830184610aed565b9998505050505050505050565b5f602082019050610ba05f830184610ade565b92915050565b7f4e6f7420612063726561746f72000000000000000000000000000000000000005f82015250565b5f610bda600d83610a7d565b9150610be582610ba6565b602082019050919050565b5f6020820190508181035f830152610c0781610bce565b9050919050565b7f4e487b71000000000000000000000000000000000000000000000000000000005f52602260045260245ffd5b5f6002820490506001821680610c5257607f821691505b602082108103610c6557610c64610c0e565b5b50919050565b5f819050815f5260205f209050919050565b5f6020601f8301049050919050565b5f82821b905092915050565b5f60088302610cc77fffffffffffffffffffffffffffffffffffffffffffffffffffffffffffffffff82610c8c565b610cd18683610c8c565b95508019841693508086168417925050509392505050565b5f819050919050565b5f610d0c610d07610d0284610968565b610ce9565b610968565b9050919050565b5f819050919050565b610d2583610cf2565b610d39610d3182610d13565b848454610c98565b825550505050565b5f5f905090565b610d50610d41565b610d5b818484610d1c565b505050565b5b81811015610d7e57610d735f82610d48565b600181019050610d61565b5050565b601f821115610dc357610d9481610c6b565b610d9d84610c7d565b81016020851015610dac578190505b610dc0610db885610c7d565b830182610d60565b50505b505050565b5f82821c905092915050565b5f610de35f1984600802610dc8565b1980831691505092915050565b5f610dfb8383610dd4565b9150826002028217905092915050565b610e1482610a73565b67ffffffffffffffff811115610e2d57610e2c6107a0565b5b610e378254610c3b565b610e42828285610d82565b5f60209050601f831160018114610e73575f8415610e61578287015190505b610e6b8582610df0565b865550610ed2565b601f198416610e8186610c6b565b5f5b82811015610ea857848901518255600182019150602085019450602081019050610e83565b86831015610ec55784890151610ec1601f891682610dd4565b8355505b6001600288020188555050505b505050505050565b7f416c7265616479207265676973746572656400000000000000000000000000005f82015250565b5f610f0e601283610a7d565b9150610f1982610eda565b602082019050919050565b5f6020820190508181035f830152610f3b81610f02565b9050919050565b7f4e616d65207265717569726564000000000000000000000000000000000000005f82015250565b5f610f76600d83610a7d565b9150610f8182610f42565b602082019050919050565b5f6020820190508181035f830152610fa381610f6a565b9050919050565b5f6020820190508181035f830152610fc28184610a9b565b90509291505056fea264697066735822122056c28e4d6d9112bbbd550ebab099cbe82e71c18810f1faf7b594760fed7ed57064736f6c634300081e0033","linkReferences":{}},"methodIdentifiers":{"creatorList(uint256)":"12697362","creators(address)":"933166e1","isCreator(address)":"efd46065","registerCreator(string,string,string)":"a1c864e9","updateProfile(string,string,string)":"1105a5eb"},"id":0}